{
  "contractName": "ToDoList",
  "abi": [
    {
      "constant": false,
      "inputs": [],
      "name": "renounceOwnership",
      "outputs": [],
      "payable": false,
      "stateMutability": "nonpayable",
      "type": "function",
      "signature": "0x715018a6"
    },
    {
      "constant": true,
      "inputs": [],
      "name": "owner",
      "outputs": [
        {
          "name": "",
          "type": "address"
        }
      ],
      "payable": false,
      "stateMutability": "view",
      "type": "function",
      "signature": "0x8da5cb5b"
    },
    {
      "constant": true,
      "inputs": [],
      "name": "isOwner",
      "outputs": [
        {
          "name": "",
          "type": "bool"
        }
      ],
      "payable": false,
      "stateMutability": "view",
      "type": "function",
      "signature": "0x8f32d59b"
    },
    {
      "constant": false,
      "inputs": [
        {
          "name": "newOwner",
          "type": "address"
        }
      ],
      "name": "transferOwnership",
      "outputs": [],
      "payable": false,
      "stateMutability": "nonpayable",
      "type": "function",
      "signature": "0xf2fde38b"
    },
    {
      "anonymous": false,
      "inputs": [
        {
          "indexed": false,
          "name": "_content",
          "type": "string"
        }
      ],
      "name": "TaskAdded",
      "type": "event",
      "signature": "0x9c5e28549cab51b5d02e7eee4fd0f6d00b70fa92e37de0a00d5b6a3c1400a927"
    },
    {
      "anonymous": false,
      "inputs": [
        {
          "indexed": true,
          "name": "previousOwner",
          "type": "address"
        },
        {
          "indexed": true,
          "name": "newOwner",
          "type": "address"
        }
      ],
      "name": "OwnershipTransferred",
      "type": "event",
      "signature": "0x8be0079c531659141344cd1fd0a4f28419497f9722a3daafe3b4186f6b6457e0"
    },
    {
      "constant": false,
      "inputs": [
        {
          "name": "_content",
          "type": "string"
        }
      ],
      "name": "addTask",
      "outputs": [],
      "payable": false,
      "stateMutability": "nonpayable",
      "type": "function",
      "signature": "0x67238562"
    },
    {
      "constant": false,
      "inputs": [
        {
          "name": "_index",
          "type": "uint256"
        }
      ],
      "name": "finishTask",
      "outputs": [],
      "payable": false,
      "stateMutability": "nonpayable",
      "type": "function",
      "signature": "0x842178b2"
    },
    {
      "constant": false,
      "inputs": [
        {
          "name": "_index",
          "type": "uint256"
        }
      ],
      "name": "deleteTask",
      "outputs": [
        {
          "name": "",
          "type": "uint256"
        }
      ],
      "payable": false,
      "stateMutability": "nonpayable",
      "type": "function",
      "signature": "0x560f3192"
    },
    {
      "constant": true,
      "inputs": [],
      "name": "getTaskCount",
      "outputs": [
        {
          "name": "",
          "type": "uint256"
        }
      ],
      "payable": false,
      "stateMutability": "view",
      "type": "function",
      "signature": "0xc17a340e"
    },
    {
      "constant": true,
      "inputs": [
        {
          "name": "_index",
          "type": "uint256"
        }
      ],
      "name": "getTask",
      "outputs": [
        {
          "name": "",
          "type": "string"
        },
        {
          "name": "",
          "type": "bool"
        }
      ],
      "payable": false,
      "stateMutability": "view",
      "type": "function",
      "signature": "0x1d65e77e"
    }
  ],
  "bytecode": "0x60806040526000610017640100000000610066810204565b60008054600160a060020a031916600160a060020a0383169081178255604051929350917f8be0079c531659141344cd1fd0a4f28419497f9722a3daafe3b4186f6b6457e0908290a35061006a565b3390565b610bbf806100796000396000f3fe608060405260043610610092577c010000000000000000000000000000000000000000000000000000000060003504631d65e77e8114610097578063560f3192146101445780636723856214610180578063715018a6146101ff578063842178b2146102145780638da5cb5b1461023e5780638f32d59b1461026f578063c17a340e14610298578063f2fde38b146102ad575b600080fd5b3480156100a357600080fd5b506100c1600480360360208110156100ba57600080fd5b50356102e0565b604051808060200183151515158152602001828103825284818151815260200191508051906020019080838360005b838110156101085781810151838201526020016100f0565b50505050905090810190601f1680156101355780820380516001836020036101000a031916815260200191505b50935050505060405180910390f35b34801561015057600080fd5b5061016e6004803603602081101561016757600080fd5b503561041f565b60408051918252519081900360200190f35b34801561018c57600080fd5b506101fd600480360360208110156101a357600080fd5b8101906020810181356401000000008111156101be57600080fd5b8201836020820111156101d057600080fd5b803590602001918460018302840111640100000000831117156101f257600080fd5b509092509050610596565b005b34801561020b57600080fd5b506101fd61074e565b34801561022057600080fd5b506101fd6004803603602081101561023757600080fd5b5035610803565b34801561024a57600080fd5b50610253610894565b60408051600160a060020a039092168252519081900360200190f35b34801561027b57600080fd5b506102846108a4565b604080519115158252519081900360200190f35b3480156102a457600080fd5b5061016e6108c8565b3480156102b957600080fd5b506101fd600480360360208110156102d057600080fd5b5035600160a060020a03166108ce565b60015460609060009083908110610341576040805160e560020a62461bcd02815260206004820152601a60248201527f5461736b20696e646578206973206f7574206f662072616e6765000000000000604482015290519081900360640190fd5b610349610a2a565b600180548690811061035757fe5b60009182526020918290206040805160029384029092018054600181161561010002600019011693909304601f810185900490940282016060908101825290820184815291938492918491908401828280156103f45780601f106103c9576101008083540402835291602001916103f4565b820191906000526020600020905b8154815290600101906020018083116103d757829003601f168201915b50505091835250506001919091015460ff161515602091820152815191015190945092505050915091565b60006104296108a4565b151561047f576040805160e560020a62461bcd02815260206004820181905260248201527f4f776e61626c653a2063616c6c6572206973206e6f7420746865206f776e6572604482015290519081900360640190fd5b600154829081106104da576040805160e560020a62461bcd02815260206004820152601a60248201527f5461736b20696e646578206973206f7574206f662072616e6765000000000000604482015290519081900360640190fd5b6001805460001981019081106104ec57fe5b906000526020600020906002020160018481548110151561050957fe5b60009182526020909120825460029283029091019161053a9183918591600019610100600183161502011604610a42565b50600191820154908201805460ff191660ff9092161515919091179055805480151561056257fe5b600082815260208120600019909201916002830201906105828282610ac7565b50600101805460ff19169055905550919050565b6000805b6001548110156105dd5760018054829081106105b257fe5b600091825260209091206001600290920201015460ff16156105d5576001909101905b60010161059a565b50600a811061065c576040805160e560020a62461bcd02815260206004820152602160248201527f46697273742066696e697368207468652063757272656e74203130207461736b60448201527f7300000000000000000000000000000000000000000000000000000000000000606482015290519081900360840190fd5b6040805160606020601f86018190040282018101835291810184815260019282919087908790819085018382808284376000920182905250938552505050602091820181905283546001810180865594825290829020835180516002909302909101926106ce92849290910190610b0b565b50602091820151600191909101805460ff1916911515919091179055604080518281529182018590527f9c5e28549cab51b5d02e7eee4fd0f6d00b70fa92e37de0a00d5b6a3c1400a92792508591859181908101848480828437600083820152604051601f909101601f19169092018290039550909350505050a1505050565b6107566108a4565b15156107ac576040805160e560020a62461bcd02815260206004820181905260248201527f4f776e61626c653a2063616c6c6572206973206e6f7420746865206f776e6572604482015290519081900360640190fd5b60008054604051600160a060020a03909116907f8be0079c531659141344cd1fd0a4f28419497f9722a3daafe3b4186f6b6457e0908390a36000805473ffffffffffffffffffffffffffffffffffffffff19169055565b6001548190811061085e576040805160e560020a62461bcd02815260206004820152601a60248201527f5461736b20696e646578206973206f7574206f662072616e6765000000000000604482015290519081900360640190fd5b6001808381548110151561086e57fe5b60009182526020909120600290910201600101805460ff19169115159190911790555050565b600054600160a060020a03165b90565b60008054600160a060020a03166108b9610938565b600160a060020a031614905090565b60015490565b6108d66108a4565b151561092c576040805160e560020a62461bcd02815260206004820181905260248201527f4f776e61626c653a2063616c6c6572206973206e6f7420746865206f776e6572604482015290519081900360640190fd5b6109358161093c565b50565b3390565b600160a060020a03811615156109c2576040805160e560020a62461bcd02815260206004820152602660248201527f4f776e61626c653a206e6577206f776e657220697320746865207a65726f206160448201527f6464726573730000000000000000000000000000000000000000000000000000606482015290519081900360840190fd5b60008054604051600160a060020a03808516939216917f8be0079c531659141344cd1fd0a4f28419497f9722a3daafe3b4186f6b6457e091a36000805473ffffffffffffffffffffffffffffffffffffffff1916600160a060020a0392909216919091179055565b60408051808201909152606081526000602082015290565b828054600181600116156101000203166002900490600052602060002090601f016020900481019282601f10610a7b5780548555610ab7565b82800160010185558215610ab757600052602060002091601f016020900482015b82811115610ab7578254825591600101919060010190610a9c565b50610ac3929150610b79565b5090565b50805460018160011615610100020316600290046000825580601f10610aed5750610935565b601f0160209004906000526020600020908101906109359190610b79565b828054600181600116156101000203166002900490600052602060002090601f016020900481019282601f10610b4c57805160ff1916838001178555610ab7565b82800160010185558215610ab7579182015b82811115610ab7578251825591602001919060010190610b5e565b6108a191905b80821115610ac35760008155600101610b7f56fea165627a7a7230582055f81d4354e7a3ca72806b24678a68cfd50a74a28c79d7ed06487a187f24bd7c0029",
  "source": "// SPDX-License-Identifier: MIT\npragma solidity >=0.4.22 <0.9.0;\n\nimport \"@openzeppelin/contracts/ownership/Ownable.sol\";\n\ncontract ToDoList is Ownable {\n    struct Task {\n        string content;\n        bool isDone;\n    }\n\n    event TaskAdded(string _content);\n\n    modifier indexIsInRange(uint _index) {\n        require(_index < _tasks.length, \"Task index is out of range\");\n        _;\n    }\n\n    Task[] private _tasks;\n\n    function addTask(string calldata _content) external {\n        uint undoneTaskCount = 0;\n\n        for(uint i = 0; i < _tasks.length; i++) {\n            if(_tasks[i].isDone) {\n                undoneTaskCount++;\n            }\n        }\n\n        require(undoneTaskCount < 10, \"First finish the current 10 tasks\");\n\n        _tasks.push(Task(_content, false));\n\n        emit TaskAdded(_content);\n    }\n\n    function finishTask(uint _index) external indexIsInRange(_index) {\n        _tasks[_index].isDone = true;\n    }\n    \n    function deleteTask(uint _index) external onlyOwner indexIsInRange(_index) returns(uint) { // only the owner can delete tasks\n        _tasks[_index] = _tasks[_tasks.length - 1];\n\n        _tasks.pop();\n    }\n\n    function getTaskCount() external view returns(uint) {\n        return _tasks.length;\n    }\n\n    function getTask(uint _index) external view indexIsInRange(_index) returns(string memory, bool) {\n        Task memory task = _tasks[_index];\n\n        return (task.content, task.isDone);\n    }\n}",
  "sourcePath": "/home/moran/git/web3-tutorial/contracts/ToDoList.sol",
  "compiler": {
    "name": "solc",
    "version": "0.5.1+commit.c8a2cb62.Emscripten.clang"
  },
  "schemaVersion": "3.0.1",
  "updatedAt": "2022-03-01T16:48:38.126Z",
  "devdoc": {
    "methods": {
      "isOwner()": {
        "details": "Returns true if the caller is the current owner."
      },
      "owner()": {
        "details": "Returns the address of the current owner."
      },
      "renounceOwnership()": {
        "details": "Leaves the contract without owner. It will not be possible to call `onlyOwner` functions anymore. Can only be called by the current owner.     * NOTE: Renouncing ownership will leave the contract without an owner, thereby removing any functionality that is only available to the owner."
      },
      "transferOwnership(address)": {
        "details": "Transfers ownership of the contract to a new account (`newOwner`). Can only be called by the current owner."
      }
    }
  },
  "userdoc": {
    "methods": {}
  }
}